:0E0233000C09000000000000010000000000A7
:10016C00EF75F006A4240AF87601EF75F006A424C6
:10017C000BF8E4F608F6EF75F006A4240DF8A604C7
:04018C0008A605229A
:1001ED00438E805389F0D2AFD2A9D28C758A4075D7
:0301FD008CA222AF
:0E02240000007F7A7EC17D80DDFEDEFCDFFA09
:0102320022A9
:1001D30074552508F8A6810508E508B40203E4F57B
:0A01E3000874552508F8E6F581229E
:10019000E4F5CAF5C9D2CB780AE6B401051201D359
:1001A00080F57DE87C03E4FFFE12016CB2CB120106
:0301B000D380E415
:10011D00E4F5B3F5B4F595F596C2A77810E6B401FC
:10012D00051201D380F57DE87C037F017E0012016D
:08013D006CB2A71201D380E3AC
:03000B000200AA46
:1000AA00C0E0C0F0C0D075D000C000C001C004C01C
:0100BA00073E
:1000BB00E4FFEF75F006A4240AF8E6B4010FEF7520
:1000CB00F006A4240BF80806E618700106EF75F08D
:1000DB0006A4240EF9EF75F006A4240BF8E6FC0831
:1000EB00E6C397EC19974017EF75F006A4240AF8AE
:1000FB007600EF75F006A4240BF876000876000F57
:03010B00BF02AF81
:0F010E00D007D004D001D000D0D0D0F0D0E03254
:10021300438E4053890F758BA0758DF6C28FD28E96
:0102230022B8
:03001B00020200DE
:10020000C0E0C0D075D000C0001201D3D000D0D063
:03021000D0E03209
:10014500EDC43354E02416FC74552DF8A604AC0711
:10015500EDC43354E02415F8A604AF06EDC43354BA
:07016500E02416F8A60722B2
:1001B3001201ED1202137E017F90E4FD1201457ED0
:1001C300017F1D0D120145E4F5087855E6F58122FE
:0300000002001EDD
:0C001E00787FE4F6D8FD7581560200657D
:10002A000201B3E493A3F8E493A34003F68001F238
:10003A0008DFF48029E493A3F85407240CC8C333D7
:10004A00C4540F4420C8834004F456800146F6DFA6
:10005A00E4800B0102040810204080900233E47E01
:10006A00019360BCA3FF543F30E509541FFEE4939B
:10007A00A360010ECF54C025E060A840B8E493A362
:10008A00FAE493A3F8E493A3C8C582C8CAC583CA8D
:10009A00F0A3C8C582C8CAC583CADFE9DEE780BE45
:0102410000BC
:00000001FF
